8=FIX.4.4|9=61|35=A|34=1|49=TW|52=20231015-22:38:18.416|56=ARCA|98=0|108=20|10=191|8=FIX.4.4|9=128|35=D|34=2|49=TW|52=20231015-22:38:20.360|56=ARCA|11=1234|21=1|38=10|40=1|44=20|54=1|55=AAPL|59=1|60=20231015-19:38:20.356|99=12|10=091|8=FIX.4.4|9=49|35=5|34=3|49=TW|52=20231015-22:38:20.494|56=ARCA|10=162|8=FIX.4.4|9=61|35=A|34=4|49=TW|52=20231015-22:38:40.366|56=ARCA|98=0|108=20|10=193|8=FIX.4.4|9=128|35=D|34=5|49=TW|52=20231015-22:38:42.366|56=ARCA|11=1234|21=1|38=10|40=1|44=20|54=1|55=AAPL|59=1|60=20231015-19:38:42.365|99=12|10=108|8=FIX.4.4|9=49|35=5|34=6|49=TW|52=20231015-22:38:42.427|56=ARCA|10=165|8=FIX.4.4|9=61|35=A|34=7|49=TW|52=20231015-22:46:59.282|56=ARCA|98=0|108=20|10=202|8=FIX.4.4|9=128|35=D|34=8|49=TW|52=20231015-22:47:01.227|56=ARCA|11=1234|21=1|38=10|40=1|44=20|54=1|55=AAPL|59=1|60=20231015-19:47:01.223|99=12|10=090|8=FIX.4.4|9=49|35=5|34=9|49=TW|52=20231015-22:47:01.363|56=ARCA|10=162|8=FIX.4.4|9=62|35=A|34=10|49=TW|52=20231015-22:49:29.204|56=ARCA|98=0|108=20|10=239|8=FIX.4.4|9=129|35=D|34=11|49=TW|52=20231015-22:49:31.155|56=ARCA|11=1234|21=1|38=10|40=1|44=20|54=1|55=AAPL|59=1|60=20231015-19:49:31.148|99=12|10=149|8=FIX.4.4|9=50|35=5|34=12|49=TW|52=20231015-22:49:31.273|56=ARCA|10=201|8=FIX.4.4|9=62|35=A|34=13|49=TW|52=20231015-22:49:45.527|56=ARCA|98=0|108=20|10=248|8=FIX.4.4|9=129|35=D|34=14|49=TW|52=20231015-22:49:47.525|56=ARCA|11=1234|21=1|38=10|40=1|44=20|54=1|55=AAPL|59=1|60=20231015-19:49:47.525|99=12|10=166|8=FIX.4.4|9=50|35=5|34=15|49=TW|52=20231015-22:49:47.571|56=ARCA|10=212|8=FIX.4.4|9=62|35=A|34=16|49=TW|52=20231015-22:49:54.960|56=ARCA|98=0|108=20|10=252|8=FIX.4.4|9=129|35=D|34=17|49=TW|52=20231015-22:49:56.963|56=ARCA|11=1234|21=1|38=10|40=1|44=20|54=1|55=AAPL|59=1|60=20231015-19:49:56.963|99=12|10=181|8=FIX.4.4|9=50|35=5|34=18|49=TW|52=20231015-22:49:57.010|56=ARCA|10=204|8=FIX.4.4|9=62|35=A|34=19|49=TW|52=20231015-22:52:35.795|56=ARCA|98=0|108=20|10=254|8=FIX.4.4|9=129|35=D|34=20|49=TW|52=20231015-22:52:37.737|56=ARCA|11=1234|21=1|38=10|40=1|44=20|54=1|55=AAPL|59=1|60=20231015-19:52:37.733|99=12|10=155|8=FIX.4.4|9=50|35=5|34=21|49=TW|52=20231015-22:52:37.857|56=ARCA|10=209|8=FIX.4.4|9=62|35=A|34=22|49=TW|52=20231015-23:30:17.053|56=ARCA|98=0|108=20|10=232|8=FIX.4.4|9=129|35=D|34=23|49=TW|52=20231015-23:30:18.997|56=ARCA|11=1234|21=1|38=10|40=1|44=20|54=1|55=AAPL|59=1|60=20231015-20:30:18.991|99=12|10=155|8=FIX.4.4|9=62|35=A|34=24|49=TW|52=20231015-23:33:05.681|56=ARCA|98=0|108=20|10=241|8=FIX.4.4|9=60|35=2|34=25|49=TW|52=20231015-23:33:05.726|56=ARCA|7=10|16=0|10=116|8=FIX.4.4|9=129|35=D|34=26|49=TW|52=20231015-23:33:07.621|56=ARCA|11=1234|21=1|38=10|40=1|44=20|54=1|55=AAPL|59=1|60=20231015-20:33:07.619|99=12|10=141|8=FIX.4.4|9=61|35=A|34=1|49=TW|52=20231015-23:34:29.529|56=ARCA|98=0|108=20|10=195|8=FIX.4.4|9=128|35=D|34=2|49=TW|52=20231015-23:34:31.479|56=ARCA|11=1234|21=1|38=10|40=1|44=20|54=1|55=AAPL|59=1|60=20231015-20:34:31.476|99=12|10=094|8=FIX.4.4|9=61|35=A|34=3|49=TW|52=20231015-23:35:48.713|56=ARCA|98=0|108=20|10=194|8=FIX.4.4|9=128|35=D|34=4|49=TW|52=20231015-23:35:50.670|56=ARCA|11=1234|21=1|38=10|40=1|44=20|54=1|55=AAPL|59=1|60=20231015-20:35:50.663|99=12|10=091|8=FIX.4.4|9=61|35=A|34=1|49=TW|52=20231015-23:40:34.642|56=ARCA|98=0|108=20|10=184|8=FIX.4.4|9=128|35=D|34=2|49=TW|52=20231015-23:40:36.592|56=ARCA|11=1234|21=1|38=10|40=1|44=20|54=1|55=AAPL|59=1|60=20231015-20:40:36.586|99=12|10=096|8=FIX.4.4|9=49|35=5|34=3|49=TW|52=20231015-23:40:36.709|56=ARCA|10=162|8=FIX.4.4|9=61|35=A|34=4|49=TW|52=20231015-23:41:19.446|56=ARCA|98=0|108=20|10=193|8=FIX.4.4|9=128|35=D|34=5|49=TW|52=20231015-23:41:21.396|56=ARCA|11=1234|21=1|38=10|40=1|44=20|54=1|55=AAPL|59=1|60=20231015-20:41:21.393|99=12|10=087|8=FIX.4.4|9=49|35=5|34=6|49=TW|52=20231015-23:41:21.518|56=ARCA|10=158|8=FIX.4.4|9=61|35=A|34=7|49=TW|52=20231015-23:41:36.986|56=ARCA|98=0|108=20|10=204|8=FIX.4.4|9=128|35=D|34=8|49=TW|52=20231015-23:41:38.979|56=ARCA|11=1234|21=1|38=10|40=1|44=20|54=1|55=AAPL|59=1|60=20231015-20:41:38.979|99=12|10=123|8=FIX.4.4|9=49|35=5|34=9|49=TW|52=20231015-23:41:39.041|56=ARCA|10=161|